{"contracts/SaharaV3.sol":{"SaharaV3":{"abi":[{"anonymous":false,"inputs":[{"indexed":false,"internalType":"uint8","name":"version","type":"uint8"}],"name":"Initialized","type":"event"},{"anonymous":false,"inputs":[{"indexed":false,"internalType":"string","name":"name","type":"string"}],"name":"NameChanged","type":"event"},{"anonymous":false,"inputs":[{"indexed":false,"internalType":"uint256","name":"newValue","type":"uint256"}],"name":"ValueChanged","type":"event"},{"inputs":[],"name":"increment","outputs":[],"stateMutability":"nonpayable","type":"function"},{"inputs":[{"internalType":"uint256","name":"_initValue","type":"uint256"}],"name":"initialize","outputs":[],"stateMutability":"nonpayable","type":"function"},{"inputs":[],"name":"name","outputs":[{"internalType":"string","name":"","type":"string"}],"stateMutability":"view","type":"function"},{"inputs":[],"name":"reduce","outputs":[],"stateMutability":"nonpayable","type":"function"},{"inputs":[],"name":"retrieve","outputs":[{"internalType":"uint256","name":"","type":"uint256"}],"stateMutability":"view","type":"function"},{"inputs":[{"internalType":"string","name":"_name","type":"string"}],"name":"setName","outputs":[],"stateMutability":"nonpayable","type":"function"},{"inputs":[{"internalType":"uint256","name":"newValue","type":"uint256"}],"name":"setValue","outputs":[],"stateMutability":"nonpayable","type":"function"}],"devdoc":{"details":"This is an auxiliary contract meant to be assigned as the admin of a {TransparentUpgradeableProxy}. For an explanation of why you would want to use this see the documentation for {TransparentUpgradeableProxy}.","events":{"Initialized(uint8)":{"details":"Triggered when the contract has been initialized or reinitialized."}},"kind":"dev","methods":{},"version":1},"evm":{"bytecode":{"linkReferences":{},"object":"608060405234801561001057600080fd5b50610bfe806100206000396000f3fe608060405234801561001057600080fd5b506004361061007d5760003560e01c8063552410771161005b57806355241077146100c8578063c47f0027146100e4578063d09de08a14610100578063fe4b84df1461010a5761007d565b806306fdde03146100825780632e64cec1146100a057806345219b0e146100be575b600080fd5b61008a610126565b6040516100979190610477565b60405180910390f35b6100a86101b4565b6040516100b591906104b2565b60405180910390f35b6100c66101be565b005b6100e260048036038101906100dd919061050d565b6101dc565b005b6100fe60048036038101906100f9919061066f565b61021d565b005b610108610268565b005b610124600480360381019061011f919061050d565b610286565b005b60028054610133906106e7565b80601f016020809104026020016040519081016040528092919081815260200182805461015f906106e7565b80156101ac5780601f10610181576101008083540402835291602001916101ac565b820191906000526020600020905b81548152906001019060200180831161018f57829003601f168201915b505050505081565b6000600154905090565b6101da60016101cb6101b4565b6101d59190610747565b6101dc565b565b806001819055507f93fe6d397c74fdf1402a8b72e47b68512f0510d7b98a4bc4cbdf6ac7108b3c598160405161021291906104b2565b60405180910390a150565b806002908161022c9190610927565b507f4737457377f528cc8afd815f73ecb8b05df80d047dbffc41c17750a4033592bc600260405161025d9190610a7d565b60405180910390a150565b61028460016102756101b4565b61027f9190610a9f565b6101dc565b565b60008060019054906101000a900460ff161590508080156102b75750600160008054906101000a900460ff1660ff16105b806102e457506102c6306103c4565b1580156102e35750600160008054906101000a900460ff1660ff16145b5b610323576040517f08c379a000000000000000000000000000000000000000000000000000000000815260040161031a90610b45565b60405180910390fd5b60016000806101000a81548160ff021916908360ff1602179055508015610360576001600060016101000a81548160ff0219169083151502179055505b8160018190555080156103c05760008060016101000a81548160ff0219169083151502179055507f7f26b83ff96e1f2b6a682f133852f6798a09c465da95921460cefb384740249860016040516103b79190610bad565b60405180910390a15b5050565b6000808273ffffffffffffffffffffffffffffffffffffffff163b119050919050565b600081519050919050565b600082825260208201905092915050565b60005b83811015610421578082015181840152602081019050610406565b60008484015250505050565b6000601f19601f8301169050919050565b6000610449826103e7565b61045381856103f2565b9350610463818560208601610403565b61046c8161042d565b840191505092915050565b60006020820190508181036000830152610491818461043e565b905092915050565b6000819050919050565b6104ac81610499565b82525050565b60006020820190506104c760008301846104a3565b92915050565b6000604051905090565b600080fd5b600080fd5b6104ea81610499565b81146104f557600080fd5b50565b600081359050610507816104e1565b92915050565b600060208284031215610523576105226104d7565b5b6000610531848285016104f8565b91505092915050565b600080fd5b600080fd5b7f4e487b7100000000000000000000000000000000000000000000000000000000600052604160045260246000fd5b61057c8261042d565b810181811067ffffffffffffffff8211171561059b5761059a610544565b5b80604052505050565b60006105ae6104cd565b90506105ba8282610573565b919050565b600067ffffffffffffffff8211156105da576105d9610544565b5b6105e38261042d565b9050602081019050919050565b82818337600083830152505050565b600061061261060d846105bf565b6105a4565b90508281526020810184848401111561062e5761062d61053f565b5b6106398482856105f0565b509392505050565b600082601f8301126106565761065561053a565b5b81356106668482602086016105ff565b91505092915050565b600060208284031215610685576106846104d7565b5b600082013567ffffffffffffffff8111156106a3576106a26104dc565b5b6106af84828501610641565b91505092915050565b7f4e487b7100000000000000000000000000000000000000000000000000000000600052602260045260246000fd5b600060028204905060018216806106ff57607f821691505b602082108103610712576107116106b8565b5b50919050565b7f4e487b7100000000000000000000000000000000000000000000000000000000600052601160045260246000fd5b600061075282610499565b915061075d83610499565b925082820390508181111561077557610774610718565b5b92915050565b60008190508160005260206000209050919050565b60006020601f8301049050919050565b600082821b905092915050565b6000600883026107dd7fffffffffffffffffffffffffffffffffffffffffffffffffffffffffffffffff826107a0565b6107e786836107a0565b95508019841693508086168417925050509392505050565b6000819050919050565b600061082461081f61081a84610499565b6107ff565b610499565b9050919050565b6000819050919050565b61083e83610809565b61085261084a8261082b565b8484546107ad565b825550505050565b600090565b61086761085a565b610872818484610835565b505050565b5b818110156108965761088b60008261085f565b600181019050610878565b5050565b601f8211156108db576108ac8161077b565b6108b584610790565b810160208510156108c4578190505b6108d86108d085610790565b830182610877565b50505b505050565b600082821c905092915050565b60006108fe600019846008026108e0565b1980831691505092915050565b600061091783836108ed565b9150826002028217905092915050565b610930826103e7565b67ffffffffffffffff81111561094957610948610544565b5b61095382546106e7565b61095e82828561089a565b600060209050601f831160018114610991576000841561097f578287015190505b610989858261090b565b8655506109f1565b601f19841661099f8661077b565b60005b828110156109c7578489015182556001820191506020850194506020810190506109a2565b868310156109e457848901516109e0601f8916826108ed565b8355505b6001600288020188555050505b505050505050565b60008154610a06816106e7565b610a1081866103f2565b94506001821660008114610a2b5760018114610a4157610a74565b60ff198316865281151560200286019350610a74565b610a4a8561077b565b60005b83811015610a6c57815481890152600182019150602081019050610a4d565b808801955050505b50505092915050565b60006020820190508181036000830152610a9781846109f9565b905092915050565b6000610aaa82610499565b9150610ab583610499565b9250828201905080821115610acd57610acc610718565b5b92915050565b7f496e697469616c697a61626c653a20636f6e747261637420697320616c72656160008201527f647920696e697469616c697a6564000000000000000000000000000000000000602082015250565b6000610b2f602e836103f2565b9150610b3a82610ad3565b604082019050919050565b60006020820190508181036000830152610b5e81610b22565b9050919050565b6000819050919050565b600060ff82169050919050565b6000610b97610b92610b8d84610b65565b6107ff565b610b6f565b9050919050565b610ba781610b7c565b82525050565b6000602082019050610bc26000830184610b9e565b9291505056fea26469706673582212205e783a9ac453719d304608bef04a67b379bcf44bc03a4bf7ea799278431e896e64736f6c63430008120033","opcodes":"PUSH1 0x80 PUSH1 0x40 MSTORE CALLVALUE DUP1 ISZERO PUSH2 0x10 JUMPI PUSH1 0x0 DUP1 REVERT JUMPDEST POP PUSH2 0xBFE DUP1 PUSH2 0x20 PUSH1 0x0 CODECOPY PUSH1 0x0 RETURN INVALID PUSH1 0x80 PUSH1 0x40 MSTORE CALLVALUE DUP1 ISZERO PUSH2 0x10 JUMPI PUSH1 0x0 DUP1 REVERT JUMPDEST POP PUSH1 0x4 CALLDATASIZE LT PUSH2 0x7D JUMPI PUSH1 0x0 CALLDATALOAD PUSH1 0xE0 SHR DUP1 PUSH4 0x55241077 GT PUSH2 0x5B JUMPI DUP1 PUSH4 0x55241077 EQ PUSH2 0xC8 JUMPI DUP1 PUSH4 0xC47F0027 EQ PUSH2 0xE4 JUMPI DUP1 PUSH4 0xD09DE08A EQ PUSH2 0x100 JUMPI DUP1 PUSH4 0xFE4B84DF EQ PUSH2 0x10A JUMPI PUSH2 0x7D JUMP JUMPDEST DUP1 PUSH4 0x6FDDE03 EQ PUSH2 0x82 JUMPI DUP1 PUSH4 0x2E64CEC1 EQ PUSH2 0xA0 JUMPI DUP1 PUSH4 0x45219B0E EQ PUSH2 0xBE JUMPI JUMPDEST PUSH1 0x0 DUP1 REVERT JUMPDEST PUSH2 0x8A PUSH2 0x126 JUMP JUMPDEST PUSH1 0x40 MLOAD PUSH2 0x97 SWAP2 SWAP1 PUSH2 0x477 JUMP JUMPDEST PUSH1 0x40 MLOAD DUP1 SWAP2 SUB SWAP1 RETURN JUMPDEST PUSH2 0xA8 PUSH2 0x1B4 JUMP JUMPDEST PUSH1 0x40 MLOAD PUSH2 0xB5 SWAP2 SWAP1 PUSH2 0x4B2 JUMP JUMPDEST PUSH1 0x40 MLOAD DUP1 SWAP2 SUB SWAP1 RETURN JUMPDEST PUSH2 0xC6 PUSH2 0x1BE JUMP JUMPDEST STOP JUMPDEST PUSH2 0xE2 PUSH1 0x4 DUP1 CALLDATASIZE SUB DUP2 ADD SWAP1 PUSH2 0xDD SWAP2 SWAP1 PUSH2 0x50D JUMP JUMPDEST PUSH2 0x1DC JUMP JUMPDEST STOP JUMPDEST PUSH2 0xFE PUSH1 0x4 DUP1 CALLDATASIZE SUB DUP2 ADD SWAP1 PUSH2 0xF9 SWAP2 SWAP1 PUSH2 0x66F JUMP JUMPDEST PUSH2 0x21D JUMP JUMPDEST STOP JUMPDEST PUSH2 0x108 PUSH2 0x268 JUMP JUMPDEST STOP JUMPDEST PUSH2 0x124 PUSH1 0x4 DUP1 CALLDATASIZE SUB DUP2 ADD SWAP1 PUSH2 0x11F SWAP2 SWAP1 PUSH2 0x50D JUMP JUMPDEST PUSH2 0x286 JUMP JUMPDEST STOP JUMPDEST PUSH1 0x2 DUP1 SLOAD PUSH2 0x133 SWAP1 PUSH2 0x6E7 JUMP JUMPDEST DUP1 PUSH1 0x1F ADD PUSH1 0x20 DUP1 SWAP2 DIV MUL PUSH1 0x20 ADD PUSH1 0x40 MLOAD SWAP1 DUP2 ADD PUSH1 0x40 MSTORE DUP1 SWAP3 SWAP2 SWAP1 DUP2 DUP2 MSTORE PUSH1 0x20 ADD DUP3 DUP1 SLOAD PUSH2 0x15F SWAP1 PUSH2 0x6E7 JUMP JUMPDEST DUP1 ISZERO PUSH2 0x1AC JUMPI DUP1 PUSH1 0x1F LT PUSH2 0x181 JUMPI PUSH2 0x100 DUP1 DUP4 SLOAD DIV MUL DUP4 MSTORE SWAP2 PUSH1 0x20 ADD SWAP2 PUSH2 0x1AC JUMP JUMPDEST DUP3 ADD SWAP2 SWAP1 PUSH1 0x0 MSTORE PUSH1 0x20 PUSH1 0x0 KECCAK256 SWAP1 JUMPDEST DUP2 SLOAD DUP2 MSTORE SWAP1 PUSH1 0x1 ADD SWAP1 PUSH1 0x20 ADD DUP1 DUP4 GT PUSH2 0x18F JUMPI DUP3 SWAP1 SUB PUSH1 0x1F AND DUP3 ADD SWAP2 JUMPDEST POP POP POP POP POP DUP2 JUMP JUMPDEST PUSH1 0x0 PUSH1 0x1 SLOAD SWAP1 POP SWAP1 JUMP JUMPDEST PUSH2 0x1DA PUSH1 0x1 PUSH2 0x1CB PUSH2 0x1B4 JUMP JUMPDEST PUSH2 0x1D5 SWAP2 SWAP1 PUSH2 0x747 JUMP JUMPDEST PUSH2 0x1DC JUMP JUMPDEST JUMP JUMPDEST DUP1 PUSH1 0x1 DUP2 SWAP1 SSTORE POP PUSH32 0x93FE6D397C74FDF1402A8B72E47B68512F0510D7B98A4BC4CBDF6AC7108B3C59 DUP2 PUSH1 0x40 MLOAD PUSH2 0x212 SWAP2 SWAP1 PUSH2 0x4B2 JUMP JUMPDEST PUSH1 0x40 MLOAD DUP1 SWAP2 SUB SWAP1 LOG1 POP JUMP JUMPDEST DUP1 PUSH1 0x2 SWAP1 DUP2 PUSH2 0x22C SWAP2 SWAP1 PUSH2 0x927 JUMP JUMPDEST POP PUSH32 0x4737457377F528CC8AFD815F73ECB8B05DF80D047DBFFC41C17750A4033592BC PUSH1 0x2 PUSH1 0x40 MLOAD PUSH2 0x25D SWAP2 SWAP1 PUSH2 0xA7D JUMP JUMPDEST PUSH1 0x40 MLOAD DUP1 SWAP2 SUB SWAP1 LOG1 POP JUMP JUMPDEST PUSH2 0x284 PUSH1 0x1 PUSH2 0x275 PUSH2 0x1B4 JUMP JUMPDEST PUSH2 0x27F SWAP2 SWAP1 PUSH2 0xA9F JUMP JUMPDEST PUSH2 0x1DC JUMP JUMPDEST JUMP JUMPDEST PUSH1 0x0 DUP1 PUSH1 0x1 SWAP1 SLOAD SWAP1 PUSH2 0x100 EXP SWAP1 DIV PUSH1 0xFF AND ISZERO SWAP1 POP DUP1 DUP1 ISZERO PUSH2 0x2B7 JUMPI POP PUSH1 0x1 PUSH1 0x0 DUP1 SLOAD SWAP1 PUSH2 0x100 EXP SWAP1 DIV PUSH1 0xFF AND PUSH1 0xFF AND LT JUMPDEST DUP1 PUSH2 0x2E4 JUMPI POP PUSH2 0x2C6 ADDRESS PUSH2 0x3C4 JUMP JUMPDEST ISZERO DUP1 ISZERO PUSH2 0x2E3 JUMPI POP PUSH1 0x1 PUSH1 0x0 DUP1 SLOAD SWAP1 PUSH2 0x100 EXP SWAP1 DIV PUSH1 0xFF AND PUSH1 0xFF AND EQ JUMPDEST JUMPDEST PUSH2 0x323 JUMPI PUSH1 0x40 MLOAD PUSH32 0x8C379A000000000000000000000000000000000000000000000000000000000 DUP2 MSTORE PUSH1 0x4 ADD PUSH2 0x31A SWAP1 PUSH2 0xB45 JUMP JUMPDEST PUSH1 0x40 MLOAD DUP1 SWAP2 SUB SWAP1 REVERT JUMPDEST PUSH1 0x1 PUSH1 0x0 DUP1 PUSH2 0x100 EXP DUP2 SLOAD DUP2 PUSH1 0xFF MUL NOT AND SWAP1 DUP4 PUSH1 0xFF AND MUL OR SWAP1 SSTORE POP DUP1 ISZERO PUSH2 0x360 JUMPI PUSH1 0x1 PUSH1 0x0 PUSH1 0x1 PUSH2 0x100 EXP DUP2 SLOAD DUP2 PUSH1 0xFF MUL NOT AND SWAP1 DUP4 ISZERO ISZERO MUL OR SWAP1 SSTORE POP JUMPDEST DUP2 PUSH1 0x1 DUP2 SWAP1 SSTORE POP DUP1 ISZERO PUSH2 0x3C0 JUMPI PUSH1 0x0 DUP1 PUSH1 0x1 PUSH2 0x100 EXP DUP2 SLOAD DUP2 PUSH1 0xFF MUL NOT AND SWAP1 DUP4 ISZERO ISZERO MUL OR SWAP1 SSTORE POP PUSH32 0x7F26B83FF96E1F2B6A682F133852F6798A09C465DA95921460CEFB3847402498 PUSH1 0x1 PUSH1 0x40 MLOAD PUSH2 0x3B7 SWAP2 SWAP1 PUSH2 0xBAD JUMP JUMPDEST PUSH1 0x40 MLOAD DUP1 SWAP2 SUB SWAP1 LOG1 JUMPDEST POP POP JUMP JUMPDEST PUSH1 0x0 DUP1 DUP3 PUSH20 0xFFFFFFFFFFFFFFFFFFFFFFFFFFFFFFFFFFFFFFFF AND EXTCODESIZE GT SWAP1 POP SWAP2 SWAP1 POP JUMP JUMPDEST PUSH1 0x0 DUP2 MLOAD SWAP1 POP SWAP2 SWAP1 POP JUMP JUMPDEST PUSH1 0x0 DUP3 DUP3 MSTORE PUSH1 0x20 DUP3 ADD SWAP1 POP SWAP3 SWAP2 POP POP JUMP JUMPDEST PUSH1 0x0 JUMPDEST DUP4 DUP2 LT ISZERO PUSH2 0x421 JUMPI DUP1 DUP3 ADD MLOAD DUP2 DUP5 ADD MSTORE PUSH1 0x20 DUP2 ADD SWAP1 POP PUSH2 0x406 JUMP JUMPDEST PUSH1 0x0 DUP5 DUP5 ADD MSTORE POP POP POP POP JUMP JUMPDEST PUSH1 0x0 PUSH1 0x1F NOT PUSH1 0x1F DUP4 ADD AND SWAP1 POP SWAP2 SWAP1 POP JUMP JUMPDEST PUSH1 0x0 PUSH2 0x449 DUP3 PUSH2 0x3E7 JUMP JUMPDEST PUSH2 0x453 DUP2 DUP6 PUSH2 0x3F2 JUMP JUMPDEST SWAP4 POP PUSH2 0x463 DUP2 DUP6 PUSH1 0x20 DUP7 ADD PUSH2 0x403 JUMP JUMPDEST PUSH2 0x46C DUP2 PUSH2 0x42D JUMP JUMPDEST DUP5 ADD SWAP2 POP POP SWAP3 SWAP2 POP POP JUMP JUMPDEST PUSH1 0x0 PUSH1 0x20 DUP3 ADD SWAP1 POP DUP2 DUP2 SUB PUSH1 0x0 DUP4 ADD MSTORE PUSH2 0x491 DUP2 DUP5 PUSH2 0x43E JUMP JUMPDEST SWAP1 POP SWAP3 SWAP2 POP POP JUMP JUMPDEST PUSH1 0x0 DUP2 SWAP1 POP SWAP2 SWAP1 POP JUMP JUMPDEST PUSH2 0x4AC DUP2 PUSH2 0x499 JUMP JUMPDEST DUP3 MSTORE POP POP JUMP JUMPDEST PUSH1 0x0 PUSH1 0x20 DUP3 ADD SWAP1 POP PUSH2 0x4C7 PUSH1 0x0 DUP4 ADD DUP5 PUSH2 0x4A3 JUMP JUMPDEST SWAP3 SWAP2 POP POP JUMP JUMPDEST PUSH1 0x0 PUSH1 0x40 MLOAD SWAP1 POP SWAP1 JUMP JUMPDEST PUSH1 0x0 DUP1 REVERT JUMPDEST PUSH1 0x0 DUP1 REVERT JUMPDEST PUSH2 0x4EA DUP2 PUSH2 0x499 JUMP JUMPDEST DUP2 EQ PUSH2 0x4F5 JUMPI PUSH1 0x0 DUP1 REVERT JUMPDEST POP JUMP JUMPDEST PUSH1 0x0 DUP2 CALLDATALOAD SWAP1 POP PUSH2 0x507 DUP2 PUSH2 0x4E1 JUMP JUMPDEST SWAP3 SWAP2 POP POP JUMP JUMPDEST PUSH1 0x0 PUSH1 0x20 DUP3 DUP5 SUB SLT ISZERO PUSH2 0x523 JUMPI PUSH2 0x522 PUSH2 0x4D7 JUMP JUMPDEST JUMPDEST PUSH1 0x0 PUSH2 0x531 DUP5 DUP3 DUP6 ADD PUSH2 0x4F8 JUMP JUMPDEST SWAP2 POP POP SWAP3 SWAP2 POP POP JUMP JUMPDEST PUSH1 0x0 DUP1 REVERT JUMPDEST PUSH1 0x0 DUP1 REVERT JUMPDEST PUSH32 0x4E487B7100000000000000000000000000000000000000000000000000000000 PUSH1 0x0 MSTORE PUSH1 0x41 PUSH1 0x4 MSTORE PUSH1 0x24 PUSH1 0x0 REVERT JUMPDEST PUSH2 0x57C DUP3 PUSH2 0x42D JUMP JUMPDEST DUP2 ADD DUP2 DUP2 LT PUSH8 0xFFFFFFFFFFFFFFFF DUP3 GT OR ISZERO PUSH2 0x59B JUMPI PUSH2 0x59A PUSH2 0x544 JUMP JUMPDEST JUMPDEST DUP1 PUSH1 0x40 MSTORE POP POP POP JUMP JUMPDEST PUSH1 0x0 PUSH2 0x5AE PUSH2 0x4CD JUMP JUMPDEST SWAP1 POP PUSH2 0x5BA DUP3 DUP3 PUSH2 0x573 JUMP JUMPDEST SWAP2 SWAP1 POP JUMP JUMPDEST PUSH1 0x0 PUSH8 0xFFFFFFFFFFFFFFFF DUP3 GT ISZERO PUSH2 0x5DA JUMPI PUSH2 0x5D9 PUSH2 0x544 JUMP JUMPDEST JUMPDEST PUSH2 0x5E3 DUP3 PUSH2 0x42D JUMP JUMPDEST SWAP1 POP PUSH1 0x20 DUP2 ADD SWAP1 POP SWAP2 SWAP1 POP JUMP JUMPDEST DUP3 DUP2 DUP4 CALLDATACOPY PUSH1 0x0 DUP4 DUP4 ADD MSTORE POP POP POP JUMP JUMPDEST PUSH1 0x0 PUSH2 0x612 PUSH2 0x60D DUP5 PUSH2 0x5BF JUMP JUMPDEST PUSH2 0x5A4 JUMP JUMPDEST SWAP1 POP DUP3 DUP2 MSTORE PUSH1 0x20 DUP2 ADD DUP5 DUP5 DUP5 ADD GT ISZERO PUSH2 0x62E JUMPI PUSH2 0x62D PUSH2 0x53F JUMP JUMPDEST JUMPDEST PUSH2 0x639 DUP5 DUP3 DUP6 PUSH2 0x5F0 JUMP JUMPDEST POP SWAP4 SWAP3 POP POP POP JUMP JUMPDEST PUSH1 0x0 DUP3 PUSH1 0x1F DUP4 ADD SLT PUSH2 0x656 JUMPI PUSH2 0x655 PUSH2 0x53A JUMP JUMPDEST JUMPDEST DUP2 CALLDATALOAD PUSH2 0x666 DUP5 DUP3 PUSH1 0x20 DUP7 ADD PUSH2 0x5FF JUMP JUMPDEST SWAP2 POP POP SWAP3 SWAP2 POP POP JUMP JUMPDEST PUSH1 0x0 PUSH1 0x20 DUP3 DUP5 SUB SLT ISZERO PUSH2 0x685 JUMPI PUSH2 0x684 PUSH2 0x4D7 JUMP JUMPDEST JUMPDEST PUSH1 0x0 DUP3 ADD CALLDATALOAD PUSH8 0xFFFFFFFFFFFFFFFF DUP2 GT ISZERO PUSH2 0x6A3 JUMPI PUSH2 0x6A2 PUSH2 0x4DC JUMP JUMPDEST JUMPDEST PUSH2 0x6AF DUP5 DUP3 DUP6 ADD PUSH2 0x641 JUMP JUMPDEST SWAP2 POP POP SWAP3 SWAP2 POP POP JUMP JUMPDEST PUSH32 0x4E487B7100000000000000000000000000000000000000000000000000000000 PUSH1 0x0 MSTORE PUSH1 0x22 PUSH1 0x4 MSTORE PUSH1 0x24 PUSH1 0x0 REVERT JUMPDEST PUSH1 0x0 PUSH1 0x2 DUP3 DIV SWAP1 POP PUSH1 0x1 DUP3 AND DUP1 PUSH2 0x6FF JUMPI PUSH1 0x7F DUP3 AND SWAP2 POP JUMPDEST PUSH1 0x20 DUP3 LT DUP2 SUB PUSH2 0x712 JUMPI PUSH2 0x711 PUSH2 0x6B8 JUMP JUMPDEST JUMPDEST POP SWAP2 SWAP1 POP JUMP JUMPDEST PUSH32 0x4E487B7100000000000000000000000000000000000000000000000000000000 PUSH1 0x0 MSTORE PUSH1 0x11 PUSH1 0x4 MSTORE PUSH1 0x24 PUSH1 0x0 REVERT JUMPDEST PUSH1 0x0 PUSH2 0x752 DUP3 PUSH2 0x499 JUMP JUMPDEST SWAP2 POP PUSH2 0x75D DUP4 PUSH2 0x499 JUMP JUMPDEST SWAP3 POP DUP3 DUP3 SUB SWAP1 POP DUP2 DUP2 GT ISZERO PUSH2 0x775 JUMPI PUSH2 0x774 PUSH2 0x718 JUMP JUMPDEST JUMPDEST SWAP3 SWAP2 POP POP JUMP JUMPDEST PUSH1 0x0 DUP2 SWAP1 POP DUP2 PUSH1 0x0 MSTORE PUSH1 0x20 PUSH1 0x0 KECCAK256 SWAP1 POP SWAP2 SWAP1 POP JUMP JUMPDEST PUSH1 0x0 PUSH1 0x20 PUSH1 0x1F DUP4 ADD DIV SWAP1 POP SWAP2 SWAP1 POP JUMP JUMPDEST PUSH1 0x0 DUP3 DUP3 SHL SWAP1 POP SWAP3 SWAP2 POP POP JUMP JUMPDEST PUSH1 0x0 PUSH1 0x8 DUP4 MUL PUSH2 0x7DD PUSH32 0xFFFFFFFFFFFFFFFFFFFFFFFFFFFFFFFFFFFFFFFFFFFFFFFFFFFFFFFFFFFFFFFF DUP3 PUSH2 0x7A0 JUMP JUMPDEST PUSH2 0x7E7 DUP7 DUP4 PUSH2 0x7A0 JUMP JUMPDEST SWAP6 POP DUP1 NOT DUP5 AND SWAP4 POP DUP1 DUP7 AND DUP5 OR SWAP3 POP POP POP SWAP4 SWAP3 POP POP POP JUMP JUMPDEST PUSH1 0x0 DUP2 SWAP1 POP SWAP2 SWAP1 POP JUMP JUMPDEST PUSH1 0x0 PUSH2 0x824 PUSH2 0x81F PUSH2 0x81A DUP5 PUSH2 0x499 JUMP JUMPDEST PUSH2 0x7FF JUMP JUMPDEST PUSH2 0x499 JUMP JUMPDEST SWAP1 POP SWAP2 SWAP1 POP JUMP JUMPDEST PUSH1 0x0 DUP2 SWAP1 POP SWAP2 SWAP1 POP JUMP JUMPDEST PUSH2 0x83E DUP4 PUSH2 0x809 JUMP JUMPDEST PUSH2 0x852 PUSH2 0x84A DUP3 PUSH2 0x82B JUMP JUMPDEST DUP5 DUP5 SLOAD PUSH2 0x7AD JUMP JUMPDEST DUP3 SSTORE POP POP POP POP JUMP JUMPDEST PUSH1 0x0 SWAP1 JUMP JUMPDEST PUSH2 0x867 PUSH2 0x85A JUMP JUMPDEST PUSH2 0x872 DUP2 DUP5 DUP5 PUSH2 0x835 JUMP JUMPDEST POP POP POP JUMP JUMPDEST JUMPDEST DUP2 DUP2 LT ISZERO PUSH2 0x896 JUMPI PUSH2 0x88B PUSH1 0x0 DUP3 PUSH2 0x85F JUMP JUMPDEST PUSH1 0x1 DUP2 ADD SWAP1 POP PUSH2 0x878 JUMP JUMPDEST POP POP JUMP JUMPDEST PUSH1 0x1F DUP3 GT ISZERO PUSH2 0x8DB JUMPI PUSH2 0x8AC DUP2 PUSH2 0x77B JUMP JUMPDEST PUSH2 0x8B5 DUP5 PUSH2 0x790 JUMP JUMPDEST DUP2 ADD PUSH1 0x20 DUP6 LT ISZERO PUSH2 0x8C4 JUMPI DUP2 SWAP1 POP JUMPDEST PUSH2 0x8D8 PUSH2 0x8D0 DUP6 PUSH2 0x790 JUMP JUMPDEST DUP4 ADD DUP3 PUSH2 0x877 JUMP JUMPDEST POP POP JUMPDEST POP POP POP JUMP JUMPDEST PUSH1 0x0 DUP3 DUP3 SHR SWAP1 POP SWAP3 SWAP2 POP POP JUMP JUMPDEST PUSH1 0x0 PUSH2 0x8FE PUSH1 0x0 NOT DUP5 PUSH1 0x8 MUL PUSH2 0x8E0 JUMP JUMPDEST NOT DUP1 DUP4 AND SWAP2 POP POP SWAP3 SWAP2 POP POP JUMP JUMPDEST PUSH1 0x0 PUSH2 0x917 DUP4 DUP4 PUSH2 0x8ED JUMP JUMPDEST SWAP2 POP DUP3 PUSH1 0x2 MUL DUP3 OR SWAP1 POP SWAP3 SWAP2 POP POP JUMP JUMPDEST PUSH2 0x930 DUP3 PUSH2 0x3E7 JUMP JUMPDEST PUSH8 0xFFFFFFFFFFFFFFFF DUP2 GT ISZERO PUSH2 0x949 JUMPI PUSH2 0x948 PUSH2 0x544 JUMP JUMPDEST JUMPDEST PUSH2 0x953 DUP3 SLOAD PUSH2 0x6E7 JUMP JUMPDEST PUSH2 0x95E DUP3 DUP3 DUP6 PUSH2 0x89A JUMP JUMPDEST PUSH1 0x0 PUSH1 0x20 SWAP1 POP PUSH1 0x1F DUP4 GT PUSH1 0x1 DUP2 EQ PUSH2 0x991 JUMPI PUSH1 0x0 DUP5 ISZERO PUSH2 0x97F JUMPI DUP3 DUP8 ADD MLOAD SWAP1 POP JUMPDEST PUSH2 0x989 DUP6 DUP3 PUSH2 0x90B JUMP JUMPDEST DUP7 SSTORE POP PUSH2 0x9F1 JUMP JUMPDEST PUSH1 0x1F NOT DUP5 AND PUSH2 0x99F DUP7 PUSH2 0x77B JUMP JUMPDEST PUSH1 0x0 JUMPDEST DUP3 DUP2 LT ISZERO PUSH2 0x9C7 JUMPI DUP5 DUP10 ADD MLOAD DUP3 SSTORE PUSH1 0x1 DUP3 ADD SWAP2 POP PUSH1 0x20 DUP6 ADD SWAP5 POP PUSH1 0x20 DUP2 ADD SWAP1 POP PUSH2 0x9A2 JUMP JUMPDEST DUP7 DUP4 LT ISZERO PUSH2 0x9E4 JUMPI DUP5 DUP10 ADD MLOAD PUSH2 0x9E0 PUSH1 0x1F DUP10 AND DUP3 PUSH2 0x8ED JUMP JUMPDEST DUP4 SSTORE POP JUMPDEST PUSH1 0x1 PUSH1 0x2 DUP9 MUL ADD DUP9 SSTORE POP POP POP JUMPDEST POP POP POP POP POP POP JUMP JUMPDEST PUSH1 0x0 DUP2 SLOAD PUSH2 0xA06 DUP2 PUSH2 0x6E7 JUMP JUMPDEST PUSH2 0xA10 DUP2 DUP7 PUSH2 0x3F2 JUMP JUMPDEST SWAP5 POP PUSH1 0x1 DUP3 AND PUSH1 0x0 DUP2 EQ PUSH2 0xA2B JUMPI PUSH1 0x1 DUP2 EQ PUSH2 0xA41 JUMPI PUSH2 0xA74 JUMP JUMPDEST PUSH1 0xFF NOT DUP4 AND DUP7 MSTORE DUP2 ISZERO ISZERO PUSH1 0x20 MUL DUP7 ADD SWAP4 POP PUSH2 0xA74 JUMP JUMPDEST PUSH2 0xA4A DUP6 PUSH2 0x77B JUMP JUMPDEST PUSH1 0x0 JUMPDEST DUP4 DUP2 LT ISZERO PUSH2 0xA6C JUMPI DUP2 SLOAD DUP2 DUP10 ADD MSTORE PUSH1 0x1 DUP3 ADD SWAP2 POP PUSH1 0x20 DUP2 ADD SWAP1 POP PUSH2 0xA4D JUMP JUMPDEST DUP1 DUP9 ADD SWAP6 POP POP POP JUMPDEST POP POP POP SWAP3 SWAP2 POP POP JUMP JUMPDEST PUSH1 0x0 PUSH1 0x20 DUP3 ADD SWAP1 POP DUP2 DUP2 SUB PUSH1 0x0 DUP4 ADD MSTORE PUSH2 0xA97 DUP2 DUP5 PUSH2 0x9F9 JUMP JUMPDEST SWAP1 POP SWAP3 SWAP2 POP POP JUMP JUMPDEST PUSH1 0x0 PUSH2 0xAAA DUP3 PUSH2 0x499 JUMP JUMPDEST SWAP2 POP PUSH2 0xAB5 DUP4 PUSH2 0x499 JUMP JUMPDEST SWAP3 POP DUP3 DUP3 ADD SWAP1 POP DUP1 DUP3 GT ISZERO PUSH2 0xACD JUMPI PUSH2 0xACC PUSH2 0x718 JUMP JUMPDEST JUMPDEST SWAP3 SWAP2 POP POP JUMP JUMPDEST PUSH32 0x496E697469616C697A61626C653A20636F6E747261637420697320616C726561 PUSH1 0x0 DUP3 ADD MSTORE PUSH32 0x647920696E697469616C697A6564000000000000000000000000000000000000 PUSH1 0x20 DUP3 ADD MSTORE POP JUMP JUMPDEST PUSH1 0x0 PUSH2 0xB2F PUSH1 0x2E DUP4 PUSH2 0x3F2 JUMP JUMPDEST SWAP2 POP PUSH2 0xB3A DUP3 PUSH2 0xAD3 JUMP JUMPDEST PUSH1 0x40 DUP3 ADD SWAP1 POP SWAP2 SWAP1 POP JUMP JUMPDEST PUSH1 0x0 PUSH1 0x20 DUP3 ADD SWAP1 POP DUP2 DUP2 SUB PUSH1 0x0 DUP4 ADD MSTORE PUSH2 0xB5E DUP2 PUSH2 0xB22 JUMP JUMPDEST SWAP1 POP SWAP2 SWAP1 POP JUMP JUMPDEST PUSH1 0x0 DUP2 SWAP1 POP SWAP2 SWAP1 POP JUMP JUMPDEST PUSH1 0x0 PUSH1 0xFF DUP3 AND SWAP1 POP SWAP2 SWAP1 POP JUMP JUMPDEST PUSH1 0x0 PUSH2 0xB97 PUSH2 0xB92 PUSH2 0xB8D DUP5 PUSH2 0xB65 JUMP JUMPDEST PUSH2 0x7FF JUMP JUMPDEST PUSH2 0xB6F JUMP JUMPDEST SWAP1 POP SWAP2 SWAP1 POP JUMP JUMPDEST PUSH2 0xBA7 DUP2 PUSH2 0xB7C JUMP JUMPDEST DUP3 MSTORE POP POP JUMP JUMPDEST PUSH1 0x0 PUSH1 0x20 DUP3 ADD SWAP1 POP PUSH2 0xBC2 PUSH1 0x0 DUP4 ADD DUP5 PUSH2 0xB9E JUMP JUMPDEST SWAP3 SWAP2 POP POP JUMP INVALID LOG2 PUSH5 0x6970667358 0x22 SLT KECCAK256 0x5E PUSH25 0x3A9AC453719D304608BEF04A67B379BCF44BC03A4BF7EA7992 PUSH25 0x431E896E64736F6C6343000812003300000000000000000000 "},"gasEstimates":{"creation":{"codeDepositCost":"614000","executionCost":"645","totalCost":"614645"},"external":{"increment()":"infinite","initialize(uint256)":"106091","name()":"infinite","reduce()":"infinite","retrieve()":"2460","setName(string)":"infinite","setValue(uint256)":"infinite"}},"methodIdentifiers":{"increment()":"d09de08a","initialize(uint256)":"fe4b84df","name()":"06fdde03","reduce()":"45219b0e","retrieve()":"2e64cec1","setName(string)":"c47f0027","setValue(uint256)":"55241077"}},"storageLayout":{"storage":[{"astId":6,"contract":"contracts/SaharaV3.sol:SaharaV3","label":"_initialized","offset":0,"slot":"0","type":"t_uint8"},{"astId":9,"contract":"contracts/SaharaV3.sol:SaharaV3","label":"_initializing","offset":1,"slot":"0","type":"t_bool"},{"astId":460,"contract":"contracts/SaharaV3.sol:SaharaV3","label":"value","offset":0,"slot":"1","type":"t_uint256"},{"astId":536,"contract":"contracts/SaharaV3.sol:SaharaV3","label":"name","offset":0,"slot":"2","type":"t_string_storage"}],"types":{"t_bool":{"encoding":"inplace","label":"bool","numberOfBytes":"1"},"t_string_storage":{"encoding":"bytes","label":"string","numberOfBytes":"32"},"t_uint256":{"encoding":"inplace","label":"uint256","numberOfBytes":"32"},"t_uint8":{"encoding":"inplace","label":"uint8","numberOfBytes":"1"}}},"userdoc":{"kind":"user","methods":{},"version":1}}}}