{
  "_format": "hh-sol-artifact-1",
  "contractName": "Sahara",
  "sourceName": "contracts/Sahara.sol",
  "abi": [
    {
      "anonymous": false,
      "inputs": [
        {
          "indexed": false,
          "internalType": "uint8",
          "name": "version",
          "type": "uint8"
        }
      ],
      "name": "Initialized",
      "type": "event"
    },
    {
      "anonymous": false,
      "inputs": [
        {
          "indexed": false,
          "internalType": "uint256",
          "name": "newValue",
          "type": "uint256"
        }
      ],
      "name": "ValueChanged",
      "type": "event"
    },
    {
      "inputs": [
        {
          "internalType": "uint256",
          "name": "_initValue",
          "type": "uint256"
        }
      ],
      "name": "initialize",
      "outputs": [],
      "stateMutability": "nonpayable",
      "type": "function"
    },
    {
      "inputs": [],
      "name": "retrieve",
      "outputs": [
        {
          "internalType": "uint256",
          "name": "",
          "type": "uint256"
        }
      ],
      "stateMutability": "view",
      "type": "function"
    },
    {
      "inputs": [
        {
          "internalType": "uint256",
          "name": "newValue",
          "type": "uint256"
        }
      ],
      "name": "setValue",
      "outputs": [],
      "stateMutability": "nonpayable",
      "type": "function"
    }
  ],
  "bytecode": "0x608060405234801561001057600080fd5b50610420806100206000396000f3fe608060405234801561001057600080fd5b50600436106100415760003560e01c80632e64cec1146100465780635524107714610064578063fe4b84df14610080575b600080fd5b61004e61009c565b60405161005b9190610261565b60405180910390f35b61007e600480360381019061007991906102ad565b6100a6565b005b61009a600480360381019061009591906102ad565b6100e7565b005b6000600154905090565b806001819055507f93fe6d397c74fdf1402a8b72e47b68512f0510d7b98a4bc4cbdf6ac7108b3c59816040516100dc9190610261565b60405180910390a150565b60008060019054906101000a900460ff161590508080156101185750600160008054906101000a900460ff1660ff16105b80610145575061012730610225565b1580156101445750600160008054906101000a900460ff1660ff16145b5b610184576040517f08c379a000000000000000000000000000000000000000000000000000000000815260040161017b9061035d565b60405180910390fd5b60016000806101000a81548160ff021916908360ff16021790555080156101c1576001600060016101000a81548160ff0219169083151502179055505b8160018190555080156102215760008060016101000a81548160ff0219169083151502179055507f7f26b83ff96e1f2b6a682f133852f6798a09c465da95921460cefb3847402498600160405161021891906103cf565b60405180910390a15b5050565b6000808273ffffffffffffffffffffffffffffffffffffffff163b119050919050565b6000819050919050565b61025b81610248565b82525050565b60006020820190506102766000830184610252565b92915050565b600080fd5b61028a81610248565b811461029557600080fd5b50565b6000813590506102a781610281565b92915050565b6000602082840312156102c3576102c261027c565b5b60006102d184828501610298565b91505092915050565b600082825260208201905092915050565b7f496e697469616c697a61626c653a20636f6e747261637420697320616c72656160008201527f647920696e697469616c697a6564000000000000000000000000000000000000602082015250565b6000610347602e836102da565b9150610352826102eb565b604082019050919050565b600060208201905081810360008301526103768161033a565b9050919050565b6000819050919050565b600060ff82169050919050565b6000819050919050565b60006103b96103b46103af8461037d565b610394565b610387565b9050919050565b6103c98161039e565b82525050565b60006020820190506103e460008301846103c0565b9291505056fea2646970667358221220a7991660f3cb8777e9755b4e14d9c7cf3cf09ef860e55b78ae852cf82b541b8d64736f6c63430008120033",
  "linkReferences": {},
  "deployedLinkReferences": {}
}