{
  "_format": "hh-sol-artifact-1",
  "contractName": "SaharaV4",
  "sourceName": "contracts/SaharaV4.sol",
  "abi": [
    {
      "anonymous": false,
      "inputs": [
        {
          "indexed": false,
          "internalType": "uint8",
          "name": "version",
          "type": "uint8"
        }
      ],
      "name": "Initialized",
      "type": "event"
    },
    {
      "anonymous": false,
      "inputs": [
        {
          "indexed": false,
          "internalType": "string",
          "name": "name",
          "type": "string"
        }
      ],
      "name": "NameChanged",
      "type": "event"
    },
    {
      "anonymous": false,
      "inputs": [
        {
          "indexed": false,
          "internalType": "uint256",
          "name": "newValue",
          "type": "uint256"
        }
      ],
      "name": "ValueChanged",
      "type": "event"
    },
    {
      "inputs": [],
      "name": "getName",
      "outputs": [
        {
          "internalType": "string",
          "name": "",
          "type": "string"
        }
      ],
      "stateMutability": "view",
      "type": "function"
    },
    {
      "inputs": [],
      "name": "increment",
      "outputs": [],
      "stateMutability": "nonpayable",
      "type": "function"
    },
    {
      "inputs": [
        {
          "internalType": "uint256",
          "name": "_initValue",
          "type": "uint256"
        }
      ],
      "name": "initialize",
      "outputs": [],
      "stateMutability": "nonpayable",
      "type": "function"
    },
    {
      "inputs": [],
      "name": "reduce",
      "outputs": [],
      "stateMutability": "nonpayable",
      "type": "function"
    },
    {
      "inputs": [],
      "name": "retrieve",
      "outputs": [
        {
          "internalType": "uint256",
          "name": "",
          "type": "uint256"
        }
      ],
      "stateMutability": "view",
      "type": "function"
    },
    {
      "inputs": [
        {
          "internalType": "string",
          "name": "_name",
          "type": "string"
        }
      ],
      "name": "setName",
      "outputs": [],
      "stateMutability": "nonpayable",
      "type": "function"
    },
    {
      "inputs": [
        {
          "internalType": "uint256",
          "name": "newValue",
          "type": "uint256"
        }
      ],
      "name": "setValue",
      "outputs": [],
      "stateMutability": "nonpayable",
      "type": "function"
    }
  ],
  "bytecode": "0x608060405234801561001057600080fd5b50610c94806100206000396000f3fe608060405234801561001057600080fd5b506004361061007d5760003560e01c8063552410771161005b57806355241077146100c8578063c47f0027146100e4578063d09de08a14610100578063fe4b84df1461010a5761007d565b806317d7de7c146100825780632e64cec1146100a057806345219b0e146100be575b600080fd5b61008a610126565b6040516100979190610411565b60405180910390f35b6100a861014e565b6040516100b5919061044c565b60405180910390f35b6100c6610158565b005b6100e260048036038101906100dd91906104a7565b610176565b005b6100fe60048036038101906100f99190610609565b6101b7565b005b610108610202565b005b610124600480360381019061011f91906104a7565b610220565b005b6060600260405160200161013a91906107a1565b604051602081830303815290604052905090565b6000600154905090565b610174600161016561014e565b61016f91906107f2565b610176565b565b806001819055507f93fe6d397c74fdf1402a8b72e47b68512f0510d7b98a4bc4cbdf6ac7108b3c59816040516101ac919061044c565b60405180910390a150565b80600290816101c691906109bd565b507f4737457377f528cc8afd815f73ecb8b05df80d047dbffc41c17750a4033592bc60026040516101f79190610b13565b60405180910390a150565b61021e600161020f61014e565b6102199190610b35565b610176565b565b60008060019054906101000a900460ff161590508080156102515750600160008054906101000a900460ff1660ff16105b8061027e57506102603061035e565b15801561027d5750600160008054906101000a900460ff1660ff16145b5b6102bd576040517f08c379a00000000000000000000000000000000000000000000000000000000081526004016102b490610bdb565b60405180910390fd5b60016000806101000a81548160ff021916908360ff16021790555080156102fa576001600060016101000a81548160ff0219169083151502179055505b81600181905550801561035a5760008060016101000a81548160ff0219169083151502179055507f7f26b83ff96e1f2b6a682f133852f6798a09c465da95921460cefb384740249860016040516103519190610c43565b60405180910390a15b5050565b6000808273ffffffffffffffffffffffffffffffffffffffff163b119050919050565b600081519050919050565b600082825260208201905092915050565b60005b838110156103bb5780820151818401526020810190506103a0565b60008484015250505050565b6000601f19601f8301169050919050565b60006103e382610381565b6103ed818561038c565b93506103fd81856020860161039d565b610406816103c7565b840191505092915050565b6000602082019050818103600083015261042b81846103d8565b905092915050565b6000819050919050565b61044681610433565b82525050565b6000602082019050610461600083018461043d565b92915050565b6000604051905090565b600080fd5b600080fd5b61048481610433565b811461048f57600080fd5b50565b6000813590506104a18161047b565b92915050565b6000602082840312156104bd576104bc610471565b5b60006104cb84828501610492565b91505092915050565b600080fd5b600080fd5b7f4e487b7100000000000000000000000000000000000000000000000000000000600052604160045260246000fd5b610516826103c7565b810181811067ffffffffffffffff82111715610535576105346104de565b5b80604052505050565b6000610548610467565b9050610554828261050d565b919050565b600067ffffffffffffffff821115610574576105736104de565b5b61057d826103c7565b9050602081019050919050565b82818337600083830152505050565b60006105ac6105a784610559565b61053e565b9050828152602081018484840111156105c8576105c76104d9565b5b6105d384828561058a565b509392505050565b600082601f8301126105f0576105ef6104d4565b5b8135610600848260208601610599565b91505092915050565b60006020828403121561061f5761061e610471565b5b600082013567ffffffffffffffff81111561063d5761063c610476565b5b610649848285016105db565b91505092915050565b600081905092915050565b7f4e616d653a200000000000000000000000000000000000000000000000000000600082015250565b6000610693600683610652565b915061069e8261065d565b600682019050919050565b7f4e487b7100000000000000000000000000000000000000000000000000000000600052602260045260246000fd5b600060028204905060018216806106f057607f821691505b602082108103610703576107026106a9565b5b50919050565b60008190508160005260206000209050919050565b6000815461072b816106d8565b6107358186610652565b94506001821660008114610750576001811461076557610798565b60ff1983168652811515820286019350610798565b61076e85610709565b60005b8381101561079057815481890152600182019150602081019050610771565b838801955050505b50505092915050565b60006107ac82610686565b91506107b8828461071e565b915081905092915050565b7f4e487b7100000000000000000000000000000000000000000000000000000000600052601160045260246000fd5b60006107fd82610433565b915061080883610433565b92508282039050818111156108205761081f6107c3565b5b92915050565b60006020601f8301049050919050565b600082821b905092915050565b6000600883026108737fffffffffffffffffffffffffffffffffffffffffffffffffffffffffffffffff82610836565b61087d8683610836565b95508019841693508086168417925050509392505050565b6000819050919050565b60006108ba6108b56108b084610433565b610895565b610433565b9050919050565b6000819050919050565b6108d48361089f565b6108e86108e0826108c1565b848454610843565b825550505050565b600090565b6108fd6108f0565b6109088184846108cb565b505050565b5b8181101561092c576109216000826108f5565b60018101905061090e565b5050565b601f8211156109715761094281610709565b61094b84610826565b8101602085101561095a578190505b61096e61096685610826565b83018261090d565b50505b505050565b600082821c905092915050565b600061099460001984600802610976565b1980831691505092915050565b60006109ad8383610983565b9150826002028217905092915050565b6109c682610381565b67ffffffffffffffff8111156109df576109de6104de565b5b6109e982546106d8565b6109f4828285610930565b600060209050601f831160018114610a275760008415610a15578287015190505b610a1f85826109a1565b865550610a87565b601f198416610a3586610709565b60005b82811015610a5d57848901518255600182019150602085019450602081019050610a38565b86831015610a7a5784890151610a76601f891682610983565b8355505b6001600288020188555050505b505050505050565b60008154610a9c816106d8565b610aa6818661038c565b94506001821660008114610ac15760018114610ad757610b0a565b60ff198316865281151560200286019350610b0a565b610ae085610709565b60005b83811015610b0257815481890152600182019150602081019050610ae3565b808801955050505b50505092915050565b60006020820190508181036000830152610b2d8184610a8f565b905092915050565b6000610b4082610433565b9150610b4b83610433565b9250828201905080821115610b6357610b626107c3565b5b92915050565b7f496e697469616c697a61626c653a20636f6e747261637420697320616c72656160008201527f647920696e697469616c697a6564000000000000000000000000000000000000602082015250565b6000610bc5602e8361038c565b9150610bd082610b69565b604082019050919050565b60006020820190508181036000830152610bf481610bb8565b9050919050565b6000819050919050565b600060ff82169050919050565b6000610c2d610c28610c2384610bfb565b610895565b610c05565b9050919050565b610c3d81610c12565b82525050565b6000602082019050610c586000830184610c34565b9291505056fea2646970667358221220a2a9040a79da97542574ef4d4a8dcc53b0df2cfaddb87c0e8faf340669135fd364736f6c63430008120033",
  "linkReferences": {},
  "deployedLinkReferences": {}
}