{
  "_format": "hh-sol-artifact-1",
  "contractName": "SaharaV3",
  "sourceName": "contracts/SaharaV3.sol",
  "abi": [
    {
      "anonymous": false,
      "inputs": [
        {
          "indexed": false,
          "internalType": "uint8",
          "name": "version",
          "type": "uint8"
        }
      ],
      "name": "Initialized",
      "type": "event"
    },
    {
      "anonymous": false,
      "inputs": [
        {
          "indexed": false,
          "internalType": "string",
          "name": "name",
          "type": "string"
        }
      ],
      "name": "NameChanged",
      "type": "event"
    },
    {
      "anonymous": false,
      "inputs": [
        {
          "indexed": false,
          "internalType": "uint256",
          "name": "newValue",
          "type": "uint256"
        }
      ],
      "name": "ValueChanged",
      "type": "event"
    },
    {
      "inputs": [],
      "name": "increment",
      "outputs": [],
      "stateMutability": "nonpayable",
      "type": "function"
    },
    {
      "inputs": [
        {
          "internalType": "uint256",
          "name": "_initValue",
          "type": "uint256"
        }
      ],
      "name": "initialize",
      "outputs": [],
      "stateMutability": "nonpayable",
      "type": "function"
    },
    {
      "inputs": [],
      "name": "name",
      "outputs": [
        {
          "internalType": "string",
          "name": "",
          "type": "string"
        }
      ],
      "stateMutability": "view",
      "type": "function"
    },
    {
      "inputs": [],
      "name": "reduce",
      "outputs": [],
      "stateMutability": "nonpayable",
      "type": "function"
    },
    {
      "inputs": [],
      "name": "retrieve",
      "outputs": [
        {
          "internalType": "uint256",
          "name": "",
          "type": "uint256"
        }
      ],
      "stateMutability": "view",
      "type": "function"
    },
    {
      "inputs": [
        {
          "internalType": "string",
          "name": "_name",
          "type": "string"
        }
      ],
      "name": "setName",
      "outputs": [],
      "stateMutability": "nonpayable",
      "type": "function"
    },
    {
      "inputs": [
        {
          "internalType": "uint256",
          "name": "newValue",
          "type": "uint256"
        }
      ],
      "name": "setValue",
      "outputs": [],
      "stateMutability": "nonpayable",
      "type": "function"
    }
  ],
  "bytecode": "0x608060405234801561001057600080fd5b50610bfe806100206000396000f3fe608060405234801561001057600080fd5b506004361061007d5760003560e01c8063552410771161005b57806355241077146100c8578063c47f0027146100e4578063d09de08a14610100578063fe4b84df1461010a5761007d565b806306fdde03146100825780632e64cec1146100a057806345219b0e146100be575b600080fd5b61008a610126565b6040516100979190610477565b60405180910390f35b6100a86101b4565b6040516100b591906104b2565b60405180910390f35b6100c66101be565b005b6100e260048036038101906100dd919061050d565b6101dc565b005b6100fe60048036038101906100f9919061066f565b61021d565b005b610108610268565b005b610124600480360381019061011f919061050d565b610286565b005b60028054610133906106e7565b80601f016020809104026020016040519081016040528092919081815260200182805461015f906106e7565b80156101ac5780601f10610181576101008083540402835291602001916101ac565b820191906000526020600020905b81548152906001019060200180831161018f57829003601f168201915b505050505081565b6000600154905090565b6101da60016101cb6101b4565b6101d59190610747565b6101dc565b565b806001819055507f93fe6d397c74fdf1402a8b72e47b68512f0510d7b98a4bc4cbdf6ac7108b3c598160405161021291906104b2565b60405180910390a150565b806002908161022c9190610927565b507f4737457377f528cc8afd815f73ecb8b05df80d047dbffc41c17750a4033592bc600260405161025d9190610a7d565b60405180910390a150565b61028460016102756101b4565b61027f9190610a9f565b6101dc565b565b60008060019054906101000a900460ff161590508080156102b75750600160008054906101000a900460ff1660ff16105b806102e457506102c6306103c4565b1580156102e35750600160008054906101000a900460ff1660ff16145b5b610323576040517f08c379a000000000000000000000000000000000000000000000000000000000815260040161031a90610b45565b60405180910390fd5b60016000806101000a81548160ff021916908360ff1602179055508015610360576001600060016101000a81548160ff0219169083151502179055505b8160018190555080156103c05760008060016101000a81548160ff0219169083151502179055507f7f26b83ff96e1f2b6a682f133852f6798a09c465da95921460cefb384740249860016040516103b79190610bad565b60405180910390a15b5050565b6000808273ffffffffffffffffffffffffffffffffffffffff163b119050919050565b600081519050919050565b600082825260208201905092915050565b60005b83811015610421578082015181840152602081019050610406565b60008484015250505050565b6000601f19601f8301169050919050565b6000610449826103e7565b61045381856103f2565b9350610463818560208601610403565b61046c8161042d565b840191505092915050565b60006020820190508181036000830152610491818461043e565b905092915050565b6000819050919050565b6104ac81610499565b82525050565b60006020820190506104c760008301846104a3565b92915050565b6000604051905090565b600080fd5b600080fd5b6104ea81610499565b81146104f557600080fd5b50565b600081359050610507816104e1565b92915050565b600060208284031215610523576105226104d7565b5b6000610531848285016104f8565b91505092915050565b600080fd5b600080fd5b7f4e487b7100000000000000000000000000000000000000000000000000000000600052604160045260246000fd5b61057c8261042d565b810181811067ffffffffffffffff8211171561059b5761059a610544565b5b80604052505050565b60006105ae6104cd565b90506105ba8282610573565b919050565b600067ffffffffffffffff8211156105da576105d9610544565b5b6105e38261042d565b9050602081019050919050565b82818337600083830152505050565b600061061261060d846105bf565b6105a4565b90508281526020810184848401111561062e5761062d61053f565b5b6106398482856105f0565b509392505050565b600082601f8301126106565761065561053a565b5b81356106668482602086016105ff565b91505092915050565b600060208284031215610685576106846104d7565b5b600082013567ffffffffffffffff8111156106a3576106a26104dc565b5b6106af84828501610641565b91505092915050565b7f4e487b7100000000000000000000000000000000000000000000000000000000600052602260045260246000fd5b600060028204905060018216806106ff57607f821691505b602082108103610712576107116106b8565b5b50919050565b7f4e487b7100000000000000000000000000000000000000000000000000000000600052601160045260246000fd5b600061075282610499565b915061075d83610499565b925082820390508181111561077557610774610718565b5b92915050565b60008190508160005260206000209050919050565b60006020601f8301049050919050565b600082821b905092915050565b6000600883026107dd7fffffffffffffffffffffffffffffffffffffffffffffffffffffffffffffffff826107a0565b6107e786836107a0565b95508019841693508086168417925050509392505050565b6000819050919050565b600061082461081f61081a84610499565b6107ff565b610499565b9050919050565b6000819050919050565b61083e83610809565b61085261084a8261082b565b8484546107ad565b825550505050565b600090565b61086761085a565b610872818484610835565b505050565b5b818110156108965761088b60008261085f565b600181019050610878565b5050565b601f8211156108db576108ac8161077b565b6108b584610790565b810160208510156108c4578190505b6108d86108d085610790565b830182610877565b50505b505050565b600082821c905092915050565b60006108fe600019846008026108e0565b1980831691505092915050565b600061091783836108ed565b9150826002028217905092915050565b610930826103e7565b67ffffffffffffffff81111561094957610948610544565b5b61095382546106e7565b61095e82828561089a565b600060209050601f831160018114610991576000841561097f578287015190505b610989858261090b565b8655506109f1565b601f19841661099f8661077b565b60005b828110156109c7578489015182556001820191506020850194506020810190506109a2565b868310156109e457848901516109e0601f8916826108ed565b8355505b6001600288020188555050505b505050505050565b60008154610a06816106e7565b610a1081866103f2565b94506001821660008114610a2b5760018114610a4157610a74565b60ff198316865281151560200286019350610a74565b610a4a8561077b565b60005b83811015610a6c57815481890152600182019150602081019050610a4d565b808801955050505b50505092915050565b60006020820190508181036000830152610a9781846109f9565b905092915050565b6000610aaa82610499565b9150610ab583610499565b9250828201905080821115610acd57610acc610718565b5b92915050565b7f496e697469616c697a61626c653a20636f6e747261637420697320616c72656160008201527f647920696e697469616c697a6564000000000000000000000000000000000000602082015250565b6000610b2f602e836103f2565b9150610b3a82610ad3565b604082019050919050565b60006020820190508181036000830152610b5e81610b22565b9050919050565b6000819050919050565b600060ff82169050919050565b6000610b97610b92610b8d84610b65565b6107ff565b610b6f565b9050919050565b610ba781610b7c565b82525050565b6000602082019050610bc26000830184610b9e565b9291505056fea26469706673582212205e783a9ac453719d304608bef04a67b379bcf44bc03a4bf7ea799278431e896e64736f6c63430008120033",
  "linkReferences": {},
  "deployedLinkReferences": {}
}