{
  "_format": "hh-sol-artifact-1",
  "contractName": "SaharaV2",
  "sourceName": "contracts/SaharaV2.sol",
  "abi": [
    {
      "anonymous": false,
      "inputs": [
        {
          "indexed": false,
          "internalType": "uint8",
          "name": "version",
          "type": "uint8"
        }
      ],
      "name": "Initialized",
      "type": "event"
    },
    {
      "anonymous": false,
      "inputs": [
        {
          "indexed": false,
          "internalType": "uint256",
          "name": "newValue",
          "type": "uint256"
        }
      ],
      "name": "ValueChanged",
      "type": "event"
    },
    {
      "inputs": [],
      "name": "increment",
      "outputs": [],
      "stateMutability": "nonpayable",
      "type": "function"
    },
    {
      "inputs": [
        {
          "internalType": "uint256",
          "name": "_initValue",
          "type": "uint256"
        }
      ],
      "name": "initialize",
      "outputs": [],
      "stateMutability": "nonpayable",
      "type": "function"
    },
    {
      "inputs": [],
      "name": "reduce",
      "outputs": [],
      "stateMutability": "nonpayable",
      "type": "function"
    },
    {
      "inputs": [],
      "name": "retrieve",
      "outputs": [
        {
          "internalType": "uint256",
          "name": "",
          "type": "uint256"
        }
      ],
      "stateMutability": "view",
      "type": "function"
    },
    {
      "inputs": [
        {
          "internalType": "uint256",
          "name": "newValue",
          "type": "uint256"
        }
      ],
      "name": "setValue",
      "outputs": [],
      "stateMutability": "nonpayable",
      "type": "function"
    }
  ],
  "bytecode": "0x608060405234801561001057600080fd5b5061051d806100206000396000f3fe608060405234801561001057600080fd5b50600436106100575760003560e01c80632e64cec11461005c57806345219b0e1461007a5780635524107714610084578063d09de08a146100a0578063fe4b84df146100aa575b600080fd5b6100646100c6565b60405161007191906102c7565b60405180910390f35b6100826100d0565b005b61009e60048036038101906100999190610313565b6100ee565b005b6100a861012f565b005b6100c460048036038101906100bf9190610313565b61014d565b005b6000600154905090565b6100ec60016100dd6100c6565b6100e7919061036f565b6100ee565b565b806001819055507f93fe6d397c74fdf1402a8b72e47b68512f0510d7b98a4bc4cbdf6ac7108b3c598160405161012491906102c7565b60405180910390a150565b61014b600161013c6100c6565b61014691906103a3565b6100ee565b565b60008060019054906101000a900460ff1615905080801561017e5750600160008054906101000a900460ff1660ff16105b806101ab575061018d3061028b565b1580156101aa5750600160008054906101000a900460ff1660ff16145b5b6101ea576040517f08c379a00000000000000000000000000000000000000000000000000000000081526004016101e19061045a565b60405180910390fd5b60016000806101000a81548160ff021916908360ff1602179055508015610227576001600060016101000a81548160ff0219169083151502179055505b8160018190555080156102875760008060016101000a81548160ff0219169083151502179055507f7f26b83ff96e1f2b6a682f133852f6798a09c465da95921460cefb3847402498600160405161027e91906104cc565b60405180910390a15b5050565b6000808273ffffffffffffffffffffffffffffffffffffffff163b119050919050565b6000819050919050565b6102c1816102ae565b82525050565b60006020820190506102dc60008301846102b8565b92915050565b600080fd5b6102f0816102ae565b81146102fb57600080fd5b50565b60008135905061030d816102e7565b92915050565b600060208284031215610329576103286102e2565b5b6000610337848285016102fe565b91505092915050565b7f4e487b7100000000000000000000000000000000000000000000000000000000600052601160045260246000fd5b600061037a826102ae565b9150610385836102ae565b925082820390508181111561039d5761039c610340565b5b92915050565b60006103ae826102ae565b91506103b9836102ae565b92508282019050808211156103d1576103d0610340565b5b92915050565b600082825260208201905092915050565b7f496e697469616c697a61626c653a20636f6e747261637420697320616c72656160008201527f647920696e697469616c697a6564000000000000000000000000000000000000602082015250565b6000610444602e836103d7565b915061044f826103e8565b604082019050919050565b6000602082019050818103600083015261047381610437565b9050919050565b6000819050919050565b600060ff82169050919050565b6000819050919050565b60006104b66104b16104ac8461047a565b610491565b610484565b9050919050565b6104c68161049b565b82525050565b60006020820190506104e160008301846104bd565b9291505056fea2646970667358221220a17e50e89d32f184eee3d89e3226d278ab8b33ac67ab7a055bfcbd75d7fd7adc64736f6c63430008120033",
  "linkReferences": {},
  "deployedLinkReferences": {}
}